{
  "_format": "hh-sol-artifact-1",
  "contractName": "Bank",
  "sourceName": "contracts/Bank.sol",
  "abi": [
    {
      "inputs": [
        {
          "internalType": "string",
          "name": "_bankName",
          "type": "string"
        }
      ],
      "stateMutability": "nonpayable",
      "type": "constructor"
    },
    {
      "anonymous": false,
      "inputs": [
        {
          "indexed": false,
          "internalType": "address",
          "name": "customer",
          "type": "address"
        },
        {
          "indexed": false,
          "internalType": "uint256",
          "name": "amount",
          "type": "uint256"
        }
      ],
      "name": "Deposit",
      "type": "event"
    },
    {
      "anonymous": false,
      "inputs": [
        {
          "indexed": false,
          "internalType": "uint256",
          "name": "amount",
          "type": "uint256"
        },
        {
          "indexed": false,
          "internalType": "uint256",
          "name": "balance",
          "type": "uint256"
        }
      ],
      "name": "Withdraw",
      "type": "event"
    },
    {
      "inputs": [],
      "name": "bankBalance",
      "outputs": [
        {
          "internalType": "uint256",
          "name": "",
          "type": "uint256"
        }
      ],
      "stateMutability": "view",
      "type": "function"
    },
    {
      "inputs": [],
      "name": "bankName",
      "outputs": [
        {
          "internalType": "string",
          "name": "",
          "type": "string"
        }
      ],
      "stateMutability": "view",
      "type": "function"
    },
    {
      "inputs": [],
      "name": "customerBalnace",
      "outputs": [
        {
          "internalType": "uint256",
          "name": "",
          "type": "uint256"
        }
      ],
      "stateMutability": "view",
      "type": "function"
    },
    {
      "inputs": [
        {
          "internalType": "address",
          "name": "",
          "type": "address"
        }
      ],
      "name": "customers",
      "outputs": [
        {
          "internalType": "uint256",
          "name": "",
          "type": "uint256"
        }
      ],
      "stateMutability": "view",
      "type": "function"
    },
    {
      "inputs": [],
      "name": "deposit",
      "outputs": [],
      "stateMutability": "payable",
      "type": "function"
    },
    {
      "inputs": [],
      "name": "owner",
      "outputs": [
        {
          "internalType": "address",
          "name": "",
          "type": "address"
        }
      ],
      "stateMutability": "view",
      "type": "function"
    },
    {
      "inputs": [
        {
          "internalType": "string",
          "name": "_newName",
          "type": "string"
        }
      ],
      "name": "rename",
      "outputs": [],
      "stateMutability": "nonpayable",
      "type": "function"
    },
    {
      "inputs": [],
      "name": "withdraw",
      "outputs": [],
      "stateMutability": "payable",
      "type": "function"
    }
  ],
  "bytecode": "0x60806040523480156200001157600080fd5b50604051620015c4380380620015c4833981810160405281019062000037919062000224565b33600160006101000a81548173ffffffffffffffffffffffffffffffffffffffff021916908373ffffffffffffffffffffffffffffffffffffffff1602179055508060009081620000899190620004c0565b5050620005a7565b6000604051905090565b600080fd5b600080fd5b600080fd5b600080fd5b6000601f19601f8301169050919050565b7f4e487b7100000000000000000000000000000000000000000000000000000000600052604160045260246000fd5b620000fa82620000af565b810181811067ffffffffffffffff821117156200011c576200011b620000c0565b5b80604052505050565b60006200013162000091565b90506200013f8282620000ef565b919050565b600067ffffffffffffffff821115620001625762000161620000c0565b5b6200016d82620000af565b9050602081019050919050565b60005b838110156200019a5780820151818401526020810190506200017d565b60008484015250505050565b6000620001bd620001b78462000144565b62000125565b905082815260208101848484011115620001dc57620001db620000aa565b5b620001e98482856200017a565b509392505050565b600082601f830112620002095762000208620000a5565b5b81516200021b848260208601620001a6565b91505092915050565b6000602082840312156200023d576200023c6200009b565b5b600082015167ffffffffffffffff8111156200025e576200025d620000a0565b5b6200026c84828501620001f1565b91505092915050565b600081519050919050565b7f4e487b7100000000000000000000000000000000000000000000000000000000600052602260045260246000fd5b60006002820490506001821680620002c857607f821691505b602082108103620002de57620002dd62000280565b5b50919050565b60008190508160005260206000209050919050565b60006020601f8301049050919050565b600082821b905092915050565b600060088302620003487fffffffffffffffffffffffffffffffffffffffffffffffffffffffffffffffff8262000309565b62000354868362000309565b95508019841693508086168417925050509392505050565b6000819050919050565b6000819050919050565b6000620003a16200039b62000395846200036c565b62000376565b6200036c565b9050919050565b6000819050919050565b620003bd8362000380565b620003d5620003cc82620003a8565b84845462000316565b825550505050565b600090565b620003ec620003dd565b620003f9818484620003b2565b505050565b5b81811015620004215762000415600082620003e2565b600181019050620003ff565b5050565b601f82111562000470576200043a81620002e4565b6200044584620002f9565b8101602085101562000455578190505b6200046d6200046485620002f9565b830182620003fe565b50505b505050565b600082821c905092915050565b6000620004956000198460080262000475565b1980831691505092915050565b6000620004b0838362000482565b9150826002028217905092915050565b620004cb8262000275565b67ffffffffffffffff811115620004e757620004e6620000c0565b5b620004f38254620002af565b6200050082828562000425565b600060209050601f83116001811462000538576000841562000523578287015190505b6200052f8582620004a2565b8655506200059f565b601f1984166200054886620002e4565b60005b8281101562000572578489015182556001820191506020850194506020810190506200054b565b868310156200059257848901516200058e601f89168262000482565b8355505b6001600288020188555050505b505050505050565b61100d80620005b76000396000f3fe60806040526004361061007b5760003560e01c80635d2636091161004e5780635d2636091461011d57806366605ba4146101485780638da5cb5b14610171578063d0e30db01461019c5761007b565b806327d358011461008057806328657aa5146100ab578063336989ae146100d65780633ccfd60b14610113575b600080fd5b34801561008c57600080fd5b506100956101a6565b6040516100a29190610757565b60405180910390f35b3480156100b757600080fd5b506100c0610234565b6040516100cd9190610792565b60405180910390f35b3480156100e257600080fd5b506100fd60048036038101906100f8919061081f565b6102cc565b60405161010a9190610792565b60405180910390f35b61011b6102e4565b005b34801561012957600080fd5b506101326104e3565b60405161013f9190610792565b60405180910390f35b34801561015457600080fd5b5061016f600480360381019061016a9190610981565b61052a565b005b34801561017d57600080fd5b506101866105cd565b60405161019391906109d9565b60405180910390f35b6101a46105f3565b005b600080546101b390610a23565b80601f01602080910402602001604051908101604052809291908181526020018280546101df90610a23565b801561022c5780601f106102015761010080835404028352916020019161022c565b820191906000526020600020905b81548152906001019060200180831161020f57829003601f168201915b505050505081565b6000600160009054906101000a900473ffffffffffffffffffffffffffffffffffffffff1673ffffffffffffffffffffffffffffffffffffffff163373ffffffffffffffffffffffffffffffffffffffff16146102c6576040517f08c379a00000000000000000000000000000000000000000000000000000000081526004016102bd90610aa0565b60405180910390fd5b47905090565b60026020528060005260406000206000915090505481565b600260003373ffffffffffffffffffffffffffffffffffffffff1673ffffffffffffffffffffffffffffffffffffffff16815260200190815260200160002054341115610366576040517f08c379a000000000000000000000000000000000000000000000000000000000815260040161035d90610b32565b60405180910390fd5b34600260003373ffffffffffffffffffffffffffffffffffffffff1673ffffffffffffffffffffffffffffffffffffffff16815260200190815260200160002060008282546103b59190610b81565b9250508190555060003373ffffffffffffffffffffffffffffffffffffffff16346040516103e290610be6565b60006040518083038185875af1925050503d806000811461041f576040519150601f19603f3d011682016040523d82523d6000602084013e610424565b606091505b5050905080610468576040517f08c379a000000000000000000000000000000000000000000000000000000000815260040161045f90610c47565b60405180910390fd5b7f56ca301a9219608c91e7bcee90e083c19671d2cdcc96752c7af291cee5f9c8c834600260003373ffffffffffffffffffffffffffffffffffffffff1673ffffffffffffffffffffffffffffffffffffffff168152602001908152602001600020546040516104d8929190610c67565b60405180910390a150565b6000600260003373ffffffffffffffffffffffffffffffffffffffff1673ffffffffffffffffffffffffffffffffffffffff16815260200190815260200160002054905090565b600160009054906101000a900473ffffffffffffffffffffffffffffffffffffffff1673ffffffffffffffffffffffffffffffffffffffff163373ffffffffffffffffffffffffffffffffffffffff16146105ba576040517f08c379a00000000000000000000000000000000000000000000000000000000081526004016105b190610aa0565b60405180910390fd5b80600090816105c99190610e3c565b5050565b600160009054906101000a900473ffffffffffffffffffffffffffffffffffffffff1681565b60003411610636576040517f08c379a000000000000000000000000000000000000000000000000000000000815260040161062d90610f5a565b60405180910390fd5b34600260003373ffffffffffffffffffffffffffffffffffffffff1673ffffffffffffffffffffffffffffffffffffffff16815260200190815260200160002060008282546106859190610f7a565b925050819055507fe1fffcc4923d04b559f4d29a8bfc6cda04eb5b0d3c460751c2402c5c5cc9109c33346040516106bd929190610fae565b60405180910390a1565b600081519050919050565b600082825260208201905092915050565b60005b838110156107015780820151818401526020810190506106e6565b60008484015250505050565b6000601f19601f8301169050919050565b6000610729826106c7565b61073381856106d2565b93506107438185602086016106e3565b61074c8161070d565b840191505092915050565b60006020820190508181036000830152610771818461071e565b905092915050565b6000819050919050565b61078c81610779565b82525050565b60006020820190506107a76000830184610783565b92915050565b6000604051905090565b600080fd5b600080fd5b600073ffffffffffffffffffffffffffffffffffffffff82169050919050565b60006107ec826107c1565b9050919050565b6107fc816107e1565b811461080757600080fd5b50565b600081359050610819816107f3565b92915050565b600060208284031215610835576108346107b7565b5b60006108438482850161080a565b91505092915050565b600080fd5b600080fd5b7f4e487b7100000000000000000000000000000000000000000000000000000000600052604160045260246000fd5b61088e8261070d565b810181811067ffffffffffffffff821117156108ad576108ac610856565b5b80604052505050565b60006108c06107ad565b90506108cc8282610885565b919050565b600067ffffffffffffffff8211156108ec576108eb610856565b5b6108f58261070d565b9050602081019050919050565b82818337600083830152505050565b600061092461091f846108d1565b6108b6565b9050828152602081018484840111156109405761093f610851565b5b61094b848285610902565b509392505050565b600082601f8301126109685761096761084c565b5b8135610978848260208601610911565b91505092915050565b600060208284031215610997576109966107b7565b5b600082013567ffffffffffffffff8111156109b5576109b46107bc565b5b6109c184828501610953565b91505092915050565b6109d3816107e1565b82525050565b60006020820190506109ee60008301846109ca565b92915050565b7f4e487b7100000000000000000000000000000000000000000000000000000000600052602260045260246000fd5b60006002820490506001821680610a3b57607f821691505b602082108103610a4e57610a4d6109f4565b5b50919050565b7f4f6e6c79206f776e657200000000000000000000000000000000000000000000600082015250565b6000610a8a600a836106d2565b9150610a9582610a54565b602082019050919050565b60006020820190508181036000830152610ab981610a7d565b9050919050565b7f596f75206e6f7420656e6f7567682062616c616e636520696e2074686520626160008201527f6e6b000000000000000000000000000000000000000000000000000000000000602082015250565b6000610b1c6022836106d2565b9150610b2782610ac0565b604082019050919050565b60006020820190508181036000830152610b4b81610b0f565b9050919050565b7f4e487b7100000000000000000000000000000000000000000000000000000000600052601160045260246000fd5b6000610b8c82610779565b9150610b9783610779565b9250828203905081811115610baf57610bae610b52565b5b92915050565b600081905092915050565b50565b6000610bd0600083610bb5565b9150610bdb82610bc0565b600082019050919050565b6000610bf182610bc3565b9150819050919050565b7f4661696c20776974686472617700000000000000000000000000000000000000600082015250565b6000610c31600d836106d2565b9150610c3c82610bfb565b602082019050919050565b60006020820190508181036000830152610c6081610c24565b9050919050565b6000604082019050610c7c6000830185610783565b610c896020830184610783565b9392505050565b60008190508160005260206000209050919050565b60006020601f8301049050919050565b600082821b905092915050565b600060088302610cf27fffffffffffffffffffffffffffffffffffffffffffffffffffffffffffffffff82610cb5565b610cfc8683610cb5565b95508019841693508086168417925050509392505050565b6000819050919050565b6000610d39610d34610d2f84610779565b610d14565b610779565b9050919050565b6000819050919050565b610d5383610d1e565b610d67610d5f82610d40565b848454610cc2565b825550505050565b600090565b610d7c610d6f565b610d87818484610d4a565b505050565b5b81811015610dab57610da0600082610d74565b600181019050610d8d565b5050565b601f821115610df057610dc181610c90565b610dca84610ca5565b81016020851015610dd9578190505b610ded610de585610ca5565b830182610d8c565b50505b505050565b600082821c905092915050565b6000610e1360001984600802610df5565b1980831691505092915050565b6000610e2c8383610e02565b9150826002028217905092915050565b610e45826106c7565b67ffffffffffffffff811115610e5e57610e5d610856565b5b610e688254610a23565b610e73828285610daf565b600060209050601f831160018114610ea65760008415610e94578287015190505b610e9e8582610e20565b865550610f06565b601f198416610eb486610c90565b60005b82811015610edc57848901518255600182019150602085019450602081019050610eb7565b86831015610ef95784890151610ef5601f891682610e02565b8355505b6001600288020188555050505b505050505050565b7f596f7572206465706f7369742073686f756c64203e2030000000000000000000600082015250565b6000610f446017836106d2565b9150610f4f82610f0e565b602082019050919050565b60006020820190508181036000830152610f7381610f37565b9050919050565b6000610f8582610779565b9150610f9083610779565b9250828201905080821115610fa857610fa7610b52565b5b92915050565b6000604082019050610fc360008301856109ca565b610fd06020830184610783565b939250505056fea26469706673582212201e5d1a99b4b01068ae25be55214fcda756bb905de16c6ffa226a68fe5b86cb5064736f6c63430008110033",
  "linkReferences": {},
  "deployedLinkReferences": {}
}